{
  "_format": "hh-sol-artifact-1",
  "contractName": "RentalAgreement",
  "sourceName": "contracts/automatedRental.sol",
  "abi": [
    {
      "anonymous": false,
      "inputs": [
        {
          "indexed": true,
          "internalType": "bytes32",
          "name": "agreementId",
          "type": "bytes32"
        },
        {
          "indexed": true,
          "internalType": "address",
          "name": "landlord",
          "type": "address"
        },
        {
          "indexed": true,
          "internalType": "address",
          "name": "tenant",
          "type": "address"
        }
      ],
      "name": "AgreementCreated",
      "type": "event"
    },
    {
      "anonymous": false,
      "inputs": [
        {
          "indexed": true,
          "internalType": "bytes32",
          "name": "agreementId",
          "type": "bytes32"
        },
        {
          "indexed": false,
          "internalType": "uint256",
          "name": "amount",
          "type": "uint256"
        }
      ],
      "name": "RentPaid",
      "type": "event"
    },
    {
      "inputs": [
        {
          "internalType": "bytes32",
          "name": "",
          "type": "bytes32"
        }
      ],
      "name": "agreements",
      "outputs": [
        {
          "internalType": "address",
          "name": "landlord",
          "type": "address"
        },
        {
          "internalType": "address",
          "name": "tenant",
          "type": "address"
        },
        {
          "internalType": "uint256",
          "name": "rent",
          "type": "uint256"
        },
        {
          "internalType": "uint256",
          "name": "dueDate",
          "type": "uint256"
        },
        {
          "internalType": "bool",
          "name": "active",
          "type": "bool"
        }
      ],
      "stateMutability": "view",
      "type": "function"
    },
    {
      "inputs": [
        {
          "internalType": "bytes32",
          "name": "agreementId",
          "type": "bytes32"
        },
        {
          "internalType": "address",
          "name": "tenant",
          "type": "address"
        },
        {
          "internalType": "uint256",
          "name": "rent",
          "type": "uint256"
        },
        {
          "internalType": "uint256",
          "name": "dueDate",
          "type": "uint256"
        }
      ],
      "name": "createAgreement",
      "outputs": [],
      "stateMutability": "nonpayable",
      "type": "function"
    },
    {
      "inputs": [
        {
          "internalType": "bytes32",
          "name": "agreementId",
          "type": "bytes32"
        }
      ],
      "name": "payRent",
      "outputs": [],
      "stateMutability": "payable",
      "type": "function"
    },
    {
      "inputs": [
        {
          "internalType": "bytes32",
          "name": "agreementId",
          "type": "bytes32"
        }
      ],
      "name": "terminateAgreement",
      "outputs": [],
      "stateMutability": "nonpayable",
      "type": "function"
    }
  ],
  "bytecode": "0x6080604052348015600f57600080fd5b506109b48061001f6000396000f3fe60806040526004361061003f5760003560e01c80639e1f68c714610044578063bb46fb3514610085578063c7e9bd6a146100ae578063fdc58e3e146100ca575b600080fd5b34801561005057600080fd5b5061006b600480360381019061006691906105ee565b6100f3565b60405161007c959493929190610690565b60405180910390f35b34801561009157600080fd5b506100ac60048036038101906100a791906105ee565b610176565b005b6100c860048036038101906100c391906105ee565b61023f565b005b3480156100d657600080fd5b506100f160048036038101906100ec919061073b565b610425565b005b60006020528060005260406000206000915090508060000160009054906101000a900473ffffffffffffffffffffffffffffffffffffffff16908060010160009054906101000a900473ffffffffffffffffffffffffffffffffffffffff16908060020154908060030154908060040160009054906101000a900460ff16905085565b600080600083815260200190815260200160002090508060000160009054906101000a900473ffffffffffffffffffffffffffffffffffffffff1673ffffffffffffffffffffffffffffffffffffffff163373ffffffffffffffffffffffffffffffffffffffff161461021e576040517f08c379a0000000000000000000000000000000000000000000000000000000008152600401610215906107ff565b60405180910390fd5b60008160040160006101000a81548160ff0219169083151502179055505050565b600080600083815260200190815260200160002090508060010160009054906101000a900473ffffffffffffffffffffffffffffffffffffffff1673ffffffffffffffffffffffffffffffffffffffff163373ffffffffffffffffffffffffffffffffffffffff16146102e7576040517f08c379a00000000000000000000000000000000000000000000000000000000081526004016102de9061086b565b60405180910390fd5b8060040160009054906101000a900460ff16610338576040517f08c379a000000000000000000000000000000000000000000000000000000000815260040161032f906108d7565b60405180910390fd5b8060020154341461037e576040517f08c379a000000000000000000000000000000000000000000000000000000000815260040161037590610943565b60405180910390fd5b8060000160009054906101000a900473ffffffffffffffffffffffffffffffffffffffff1673ffffffffffffffffffffffffffffffffffffffff166108fc349081150290604051600060405180830381858888f193505050501580156103e8573d6000803e3d6000fd5b50817f3c4c3bd22f93c6ecb1cfc2650f15d1652ea74b8866707add974e493a7d493049346040516104199190610963565b60405180910390a25050565b6040518060a001604052803373ffffffffffffffffffffffffffffffffffffffff1681526020018473ffffffffffffffffffffffffffffffffffffffff1681526020018381526020018281526020016001151581525060008086815260200190815260200160002060008201518160000160006101000a81548173ffffffffffffffffffffffffffffffffffffffff021916908373ffffffffffffffffffffffffffffffffffffffff16021790555060208201518160010160006101000a81548173ffffffffffffffffffffffffffffffffffffffff021916908373ffffffffffffffffffffffffffffffffffffffff160217905550604082015181600201556060820151816003015560808201518160040160006101000a81548160ff0219169083151502179055509050508273ffffffffffffffffffffffffffffffffffffffff163373ffffffffffffffffffffffffffffffffffffffff16857f4fbc8792122a29cec5c0438085dbfe15fbe0d8d89b25d8d3f4155b683d5abb0660405160405180910390a450505050565b600080fd5b6000819050919050565b6105cb816105b8565b81146105d657600080fd5b50565b6000813590506105e8816105c2565b92915050565b600060208284031215610604576106036105b3565b5b6000610612848285016105d9565b91505092915050565b600073ffffffffffffffffffffffffffffffffffffffff82169050919050565b60006106468261061b565b9050919050565b6106568161063b565b82525050565b6000819050919050565b61066f8161065c565b82525050565b60008115159050919050565b61068a81610675565b82525050565b600060a0820190506106a5600083018861064d565b6106b2602083018761064d565b6106bf6040830186610666565b6106cc6060830185610666565b6106d96080830184610681565b9695505050505050565b6106ec8161063b565b81146106f757600080fd5b50565b600081359050610709816106e3565b92915050565b6107188161065c565b811461072357600080fd5b50565b6000813590506107358161070f565b92915050565b60008060008060808587031215610755576107546105b3565b5b6000610763878288016105d9565b9450506020610774878288016106fa565b935050604061078587828801610726565b925050606061079687828801610726565b91505092959194509250565b600082825260208201905092915050565b7f4f6e6c79206c616e646c6f72642063616e207465726d696e6174650000000000600082015250565b60006107e9601b836107a2565b91506107f4826107b3565b602082019050919050565b60006020820190508181036000830152610818816107dc565b9050919050565b7f4f6e6c792074656e616e742063616e2070617900000000000000000000000000600082015250565b60006108556013836107a2565b91506108608261081f565b602082019050919050565b6000602082019050818103600083015261088481610848565b9050919050565b7f41677265656d656e74206973206e6f7420616374697665000000000000000000600082015250565b60006108c16017836107a2565b91506108cc8261088b565b602082019050919050565b600060208201905081810360008301526108f0816108b4565b9050919050565b7f496e636f72726563742072656e7420616d6f756e740000000000000000000000600082015250565b600061092d6015836107a2565b9150610938826108f7565b602082019050919050565b6000602082019050818103600083015261095c81610920565b9050919050565b60006020820190506109786000830184610666565b9291505056fea264697066735822122041c1af500bfcafd462f50c9a6fd88eb79e4ce6c80902bb76183f184b2d376dfb64736f6c634300081a0033",
  "linkReferences": {},
  "deployedLinkReferences": {}
}